{
  "contractName": "Ballot",
  "abi": [
    {
      "constant": true,
      "inputs": [],
      "name": "candidateCounter",
      "outputs": [
        {
          "internalType": "uint256",
          "name": "",
          "type": "uint256"
        }
      ],
      "payable": false,
      "stateMutability": "view",
      "type": "function"
    },
    {
      "constant": true,
      "inputs": [
        {
          "internalType": "uint256",
          "name": "",
          "type": "uint256"
        }
      ],
      "name": "candidates",
      "outputs": [
        {
          "internalType": "uint256",
          "name": "_id",
          "type": "uint256"
        },
        {
          "internalType": "string",
          "name": "_firstName",
          "type": "string"
        },
        {
          "internalType": "string",
          "name": "_lastName",
          "type": "string"
        }
      ],
      "payable": false,
      "stateMutability": "view",
      "type": "function"
    },
    {
      "constant": true,
      "inputs": [],
      "name": "voterCounter",
      "outputs": [
        {
          "internalType": "uint256",
          "name": "",
          "type": "uint256"
        }
      ],
      "payable": false,
      "stateMutability": "view",
      "type": "function"
    },
    {
      "constant": true,
      "inputs": [
        {
          "internalType": "uint256",
          "name": "",
          "type": "uint256"
        }
      ],
      "name": "voters",
      "outputs": [
        {
          "internalType": "uint256",
          "name": "_id",
          "type": "uint256"
        },
        {
          "internalType": "string",
          "name": "_firstName",
          "type": "string"
        },
        {
          "internalType": "string",
          "name": "_lastName",
          "type": "string"
        }
      ],
      "payable": false,
      "stateMutability": "view",
      "type": "function"
    },
    {
      "constant": false,
      "inputs": [
        {
          "internalType": "string",
          "name": "_firstName",
          "type": "string"
        },
        {
          "internalType": "string",
          "name": "_lastName",
          "type": "string"
        }
      ],
      "name": "addCandidate",
      "outputs": [],
      "payable": false,
      "stateMutability": "nonpayable",
      "type": "function"
    },
    {
      "constant": false,
      "inputs": [
        {
          "internalType": "string",
          "name": "_firstName",
          "type": "string"
        },
        {
          "internalType": "string",
          "name": "_lastName",
          "type": "string"
        }
      ],
      "name": "addVoter",
      "outputs": [],
      "payable": false,
      "stateMutability": "nonpayable",
      "type": "function"
    }
  ],
  "bytecode": "0x60806040526000600255600060035534801561001a57600080fd5b5061073b8061002a6000396000f3fe608060405234801561001057600080fd5b50600436106100625760003560e01c806326541b56146100675780633477ee2e146101925780633bc990db146102945780634d50ba3a146102ae578063853671b9146102b6578063da58c7d9146103df575b600080fd5b6101906004803603604081101561007d57600080fd5b810190602081018135600160201b81111561009757600080fd5b8201836020820111156100a957600080fd5b803590602001918460018302840111600160201b831117156100ca57600080fd5b91908080601f0160208091040260200160405190810160405280939291908181526020018383808284376000920191909152509295949360208101935035915050600160201b81111561011c57600080fd5b82018360208201111561012e57600080fd5b803590602001918460018302840111600160201b8311171561014f57600080fd5b91908080601f0160208091040260200160405190810160405280939291908181526020018383808284376000920191909152509295506103fc945050505050565b005b6101af600480360360208110156101a857600080fd5b503561046f565b604051808481526020018060200180602001838103835285818151815260200191508051906020019080838360005b838110156101f65781810151838201526020016101de565b50505050905090810190601f1680156102235780820380516001836020036101000a031916815260200191505b50838103825284518152845160209182019186019080838360005b8381101561025657818101518382015260200161023e565b50505050905090810190601f1680156102835780820380516001836020036101000a031916815260200191505b509550505050505060405180910390f35b61029c6105a5565b60408051918252519081900360200190f35b61029c6105ab565b610190600480360360408110156102cc57600080fd5b810190602081018135600160201b8111156102e657600080fd5b8201836020820111156102f857600080fd5b803590602001918460018302840111600160201b8311171561031957600080fd5b91908080601f0160208091040260200160405190810160405280939291908181526020018383808284376000920191909152509295949360208101935035915050600160201b81111561036b57600080fd5b82018360208201111561037d57600080fd5b803590602001918460018302840111600160201b8311171561039e57600080fd5b91908080601f0160208091040260200160405190810160405280939291908181526020018383808284376000920191909152509295506105b1945050505050565b6101af600480360360208110156103f557600080fd5b50356105fa565b6002805460019081019182905560408051606081018252838152602080820187815282840187905260009586528582529290942081518155915180519194929361044c939085019291019061066b565b506040820151805161046891600284019160209091019061066b565b5050505050565b600060208181529181526040908190208054600180830180548551600293821615610100026000190190911692909204601f81018790048702830187019095528482529194929390928301828280156105095780601f106104de57610100808354040283529160200191610509565b820191906000526020600020905b8154815290600101906020018083116104ec57829003601f168201915b50505060028085018054604080516020601f600019610100600187161502019094169590950492830185900485028101850190915281815295969594509092509083018282801561059b5780601f106105705761010080835404028352916020019161059b565b820191906000526020600020905b81548152906001019060200180831161057e57829003601f168201915b5050505050905083565b60025481565b60035481565b604080516060810182526003548082526020808301868152838501869052600092835260018083529490922083518155915180519394929361044c93850192919091019061066b565b600160208181526000928352604092839020805481840180548651600296821615610100026000190190911695909504601f810185900485028601850190965285855290949193929091908301828280156105095780601f106104de57610100808354040283529160200191610509565b828054600181600116156101000203166002900490600052602060002090601f016020900481019282601f106106ac57805160ff19168380011785556106d9565b828001600101855582156106d9579182015b828111156106d95782518255916020019190600101906106be565b506106e59291506106e9565b5090565b61070391905b808211156106e557600081556001016106ef565b9056fea265627a7a72315820c76f82c99e6f7a0d87521c6b72cfe367047e72c7538a8ebf31ce0f2ac802f08264736f6c63430005100032",
  "source": "pragma solidity >=0.5.0;\r\n\r\ncontract Ballot {\r\n    mapping(uint256 => Candidate) public candidates;\r\n    mapping(uint256 => Voter) public voters;\r\n    uint256 public candidateCounter = 0;\r\n    uint256 public voterCounter = 0;\r\n\r\n    struct Candidate {\r\n        uint256 _id;\r\n        string _firstName;\r\n        string _lastName;\r\n    }\r\n    struct Voter {\r\n        uint256 _id;\r\n        string _firstName;\r\n        string _lastName;\r\n    }\r\n\r\n    function addCandidate(string memory _firstName, string memory _lastName)\r\n        public\r\n    {\r\n        candidateCounter++;\r\n        candidates[candidateCounter] = Candidate(\r\n            candidateCounter,\r\n            _firstName,\r\n            _lastName\r\n        );\r\n    }\r\n\r\n    function addVoter(string memory _firstName, string memory _lastName)\r\n        public\r\n    {\r\n        voterCounter;\r\n        voters[voterCounter] = Voter(voterCounter, _firstName, _lastName);\r\n    }\r\n}\r\n",
  "sourcePath": "C:\\Users\\fmbxj\\Desktop\\eth-test-project\\contracts\\Ballot.sol",
  "compiler": {
    "name": "solc",
    "version": "0.5.16+commit.9c3226ce.Emscripten.clang"
  },
  "schemaVersion": "3.4.5",
  "updatedAt": "2022-02-23T01:08:42.671Z",
  "networkType": "ethereum",
  "devdoc": {
    "methods": {}
  },
  "userdoc": {
    "methods": {}
  }
}