{
  "contractName": "Candidates",
  "abi": [
    {
      "constant": true,
      "inputs": [
        {
          "internalType": "uint256",
          "name": "",
          "type": "uint256"
        }
      ],
      "name": "candidates",
      "outputs": [
        {
          "internalType": "uint256",
          "name": "_id",
          "type": "uint256"
        },
        {
          "internalType": "string",
          "name": "_firstName",
          "type": "string"
        },
        {
          "internalType": "string",
          "name": "_lastName",
          "type": "string"
        }
      ],
      "payable": false,
      "stateMutability": "view",
      "type": "function"
    },
    {
      "constant": true,
      "inputs": [],
      "name": "counter",
      "outputs": [
        {
          "internalType": "uint256",
          "name": "",
          "type": "uint256"
        }
      ],
      "payable": false,
      "stateMutability": "view",
      "type": "function"
    },
    {
      "constant": false,
      "inputs": [
        {
          "internalType": "string",
          "name": "_firstName",
          "type": "string"
        },
        {
          "internalType": "string",
          "name": "_lastName",
          "type": "string"
        }
      ],
      "name": "addCandidate",
      "outputs": [],
      "payable": false,
      "stateMutability": "nonpayable",
      "type": "function"
    }
  ],
  "bytecode": "0x6080604052600060015534801561001557600080fd5b50610519806100256000396000f3fe608060405234801561001057600080fd5b50600436106100415760003560e01c806326541b56146100465780633477ee2e1461017557806361bc221a14610277575b600080fd5b6101736004803603604081101561005c57600080fd5b81019060208101813564010000000081111561007757600080fd5b82018360208201111561008957600080fd5b803590602001918460018302840111640100000000831117156100ab57600080fd5b91908080601f01602080910402602001604051908101604052809392919081815260200183838082843760009201919091525092959493602081019350359150506401000000008111156100fe57600080fd5b82018360208201111561011057600080fd5b8035906020019184600183028401116401000000008311171561013257600080fd5b91908080601f016020809104026020016040519081016040528093929190818152602001838380828437600092019190915250929550610291945050505050565b005b6101926004803603602081101561018b57600080fd5b5035610303565b604051808481526020018060200180602001838103835285818151815260200191508051906020019080838360005b838110156101d95781810151838201526020016101c1565b50505050905090810190601f1680156102065780820380516001836020036101000a031916815260200191505b50838103825284518152845160209182019186019080838360005b83811015610239578181015183820152602001610221565b50505050905090810190601f1680156102665780820380516001836020036101000a031916815260200191505b509550505050505060405180910390f35b61027f610439565b60408051918252519081900360200190f35b61029961043f565b6040805160608101825260018054808352602080840187815284860187905260009283528282529490912083518155935180519394936102e0938501929190910190610449565b50604082015180516102fc916002840191602090910190610449565b5050505050565b600060208181529181526040908190208054600180830180548551600293821615610100026000190190911692909204601f810187900487028301870190955284825291949293909283018282801561039d5780601f106103725761010080835404028352916020019161039d565b820191906000526020600020905b81548152906001019060200180831161038057829003601f168201915b50505060028085018054604080516020601f600019610100600187161502019094169590950492830185900485028101850190915281815295969594509092509083018282801561042f5780601f106104045761010080835404028352916020019161042f565b820191906000526020600020905b81548152906001019060200180831161041257829003601f168201915b5050505050905083565b60015481565b6001805481019055565b828054600181600116156101000203166002900490600052602060002090601f016020900481019282601f1061048a57805160ff19168380011785556104b7565b828001600101855582156104b7579182015b828111156104b757825182559160200191906001019061049c565b506104c39291506104c7565b5090565b6104e191905b808211156104c357600081556001016104cd565b9056fea265627a7a723158206e0c988050a942f23244800df1038250812a507469f20bf11ebe915ec9c65dbe64736f6c63430005100032",
  "source": "// SPDX-License-Identifier: MIT\r\npragma solidity >=0.5.0;\r\n\r\ncontract Candidates {\r\n    mapping(uint256 => Candidate) public candidates;\r\n    uint256 public counter = 0;\r\n\r\n    struct Candidate {\r\n        uint256 _id;\r\n        string _firstName;\r\n        string _lastName;\r\n    }\r\n\r\n    function addCandidate(string memory _firstName, string memory _lastName)\r\n        public\r\n    {\r\n        incrementCount();\r\n        candidates[counter] = Candidate(counter, _firstName, _lastName);\r\n    }\r\n\r\n    function incrementCount() internal {\r\n        counter++;\r\n    }\r\n}\r\n",
  "sourcePath": "C:\\Users\\fmbxj\\Desktop\\eth-test-project\\contracts\\Candidates.sol",
  "compiler": {
    "name": "solc",
    "version": "0.5.16+commit.9c3226ce.Emscripten.clang"
  },
  "schemaVersion": "3.4.5",
  "updatedAt": "2022-02-23T01:08:42.668Z",
  "networkType": "ethereum",
  "devdoc": {
    "methods": {}
  },
  "userdoc": {
    "methods": {}
  }
}