{
  "contractName": "Voters",
  "abi": [
    {
      "constant": true,
      "inputs": [],
      "name": "voterCounter",
      "outputs": [
        {
          "internalType": "uint256",
          "name": "",
          "type": "uint256"
        }
      ],
      "payable": false,
      "stateMutability": "view",
      "type": "function"
    },
    {
      "constant": true,
      "inputs": [
        {
          "internalType": "uint256",
          "name": "",
          "type": "uint256"
        }
      ],
      "name": "voters",
      "outputs": [
        {
          "internalType": "uint256",
          "name": "_id",
          "type": "uint256"
        },
        {
          "internalType": "string",
          "name": "_firstName",
          "type": "string"
        },
        {
          "internalType": "string",
          "name": "_lastName",
          "type": "string"
        }
      ],
      "payable": false,
      "stateMutability": "view",
      "type": "function"
    },
    {
      "constant": false,
      "inputs": [
        {
          "internalType": "string",
          "name": "_firstName",
          "type": "string"
        },
        {
          "internalType": "string",
          "name": "_lastName",
          "type": "string"
        }
      ],
      "name": "addVoter",
      "outputs": [],
      "payable": false,
      "stateMutability": "nonpayable",
      "type": "function"
    }
  ],
  "bytecode": "0x6080604052600060015534801561001557600080fd5b5061050b806100256000396000f3fe608060405234801561001057600080fd5b50600436106100415760003560e01c80634d50ba3a14610046578063853671b914610060578063da58c7d91461018f575b600080fd5b61004e610291565b60408051918252519081900360200190f35b61018d6004803603604081101561007657600080fd5b81019060208101813564010000000081111561009157600080fd5b8201836020820111156100a357600080fd5b803590602001918460018302840111640100000000831117156100c557600080fd5b91908080601f016020809104026020016040519081016040528093929190818152602001838380828437600092019190915250929594936020810193503591505064010000000081111561011857600080fd5b82018360208201111561012a57600080fd5b8035906020019184600183028401116401000000008311171561014c57600080fd5b91908080601f016020809104026020016040519081016040528093929190818152602001838380828437600092019190915250929550610297945050505050565b005b6101ac600480360360208110156101a557600080fd5b5035610305565b604051808481526020018060200180602001838103835285818151815260200191508051906020019080838360005b838110156101f35781810151838201526020016101db565b50505050905090810190601f1680156102205780820380516001836020036101000a031916815260200191505b50838103825284518152845160209182019186019080838360005b8381101561025357818101518382015260200161023b565b50505050905090810190601f1680156102805780820380516001836020036101000a031916815260200191505b509550505050505060405180910390f35b60015481565b6001805481018082556040805160608101825282815260208082018781528284018790526000948552848252929093208151815591518051919492936102e29385019291019061043b565b50604082015180516102fe91600284019160209091019061043b565b5050505050565b600060208181529181526040908190208054600180830180548551600293821615610100026000190190911692909204601f810187900487028301870190955284825291949293909283018282801561039f5780601f106103745761010080835404028352916020019161039f565b820191906000526020600020905b81548152906001019060200180831161038257829003601f168201915b50505060028085018054604080516020601f60001961010060018716150201909416959095049283018590048502810185019091528181529596959450909250908301828280156104315780601f1061040657610100808354040283529160200191610431565b820191906000526020600020905b81548152906001019060200180831161041457829003601f168201915b5050505050905083565b828054600181600116156101000203166002900490600052602060002090601f016020900481019282601f1061047c57805160ff19168380011785556104a9565b828001600101855582156104a9579182015b828111156104a957825182559160200191906001019061048e565b506104b59291506104b9565b5090565b6104d391905b808211156104b557600081556001016104bf565b9056fea265627a7a72315820ae9304e9dec4c676be9761dbd2947705eb61dca898453c8976f1410a7036607564736f6c63430005100032",
  "source": "// SPDX-License-Identifier: MIT\r\npragma solidity >=0.5.0;\r\n\r\ncontract Voters {\r\n    mapping(uint256 => Voter) public voters;\r\n    uint256 public voterCounter = 0;\r\n\r\n    struct Voter {\r\n        uint256 _id;\r\n        string _firstName;\r\n        string _lastName;\r\n    }\r\n\r\n    function addVoter(string memory _firstName, string memory _lastName)\r\n        public\r\n    {\r\n        voterCounter++;\r\n        voters[voterCounter] = Voter(voterCounter, _firstName, _lastName);\r\n    }\r\n}\r\n",
  "sourcePath": "C:\\Users\\fmbxj\\Desktop\\eth-test-project\\contracts\\Voters.sol",
  "compiler": {
    "name": "solc",
    "version": "0.5.16+commit.9c3226ce.Emscripten.clang"
  },
  "schemaVersion": "3.4.5",
  "updatedAt": "2022-02-23T01:08:42.669Z",
  "networkType": "ethereum",
  "devdoc": {
    "methods": {}
  },
  "userdoc": {
    "methods": {}
  }
}